{
  "address": "0xd6d6c09e1Fd9f9B40B385e7D6C57291234986E1c",
  "abi": [
    {
      "inputs": [
        {
          "internalType": "string[]",
          "name": "_albums",
          "type": "string[]"
        }
      ],
      "stateMutability": "nonpayable",
      "type": "constructor"
    },
    {
      "inputs": [
        {
          "internalType": "string",
          "name": "",
          "type": "string"
        }
      ],
      "name": "NotApproved",
      "type": "error"
    },
    {
      "inputs": [
        {
          "internalType": "string",
          "name": "_album",
          "type": "string"
        }
      ],
      "name": "IsRecordApproved",
      "outputs": [
        {
          "internalType": "bool",
          "name": "",
          "type": "bool"
        }
      ],
      "stateMutability": "view",
      "type": "function"
    },
    {
      "inputs": [
        {
          "internalType": "string",
          "name": "_album",
          "type": "string"
        }
      ],
      "name": "addRecord",
      "outputs": [],
      "stateMutability": "nonpayable",
      "type": "function"
    },
    {
      "inputs": [
        {
          "internalType": "uint256",
          "name": "",
          "type": "uint256"
        }
      ],
      "name": "albumIndex",
      "outputs": [
        {
          "internalType": "string",
          "name": "",
          "type": "string"
        }
      ],
      "stateMutability": "view",
      "type": "function"
    },
    {
      "inputs": [],
      "name": "approvedAlbumCount",
      "outputs": [
        {
          "internalType": "uint256",
          "name": "",
          "type": "uint256"
        }
      ],
      "stateMutability": "view",
      "type": "function"
    },
    {
      "inputs": [
        {
          "internalType": "string",
          "name": "",
          "type": "string"
        }
      ],
      "name": "approvedRecords",
      "outputs": [
        {
          "internalType": "bool",
          "name": "",
          "type": "bool"
        }
      ],
      "stateMutability": "view",
      "type": "function"
    },
    {
      "inputs": [],
      "name": "getApprovedRecords",
      "outputs": [
        {
          "internalType": "string[]",
          "name": "",
          "type": "string[]"
        }
      ],
      "stateMutability": "view",
      "type": "function"
    },
    {
      "inputs": [
        {
          "internalType": "address",
          "name": "_address",
          "type": "address"
        }
      ],
      "name": "getUserFavorites",
      "outputs": [
        {
          "internalType": "string[]",
          "name": "",
          "type": "string[]"
        }
      ],
      "stateMutability": "view",
      "type": "function"
    },
    {
      "inputs": [],
      "name": "resetUserFavorites",
      "outputs": [],
      "stateMutability": "nonpayable",
      "type": "function"
    },
    {
      "inputs": [
        {
          "internalType": "address",
          "name": "",
          "type": "address"
        },
        {
          "internalType": "string",
          "name": "",
          "type": "string"
        }
      ],
      "name": "userFavorites",
      "outputs": [
        {
          "internalType": "bool",
          "name": "",
          "type": "bool"
        }
      ],
      "stateMutability": "view",
      "type": "function"
    }
  ],
  "transactionHash": "0x6319fa926e39c59f6e64a05fb7876f1422e2faf57bee064347b42d805d71d0ef",
  "args": [
    [
      "Thriller",
      "Back in Black",
      "The Bodyguard",
      "The Dark Side of the Moon",
      "Their Greatest Hits (1971-1975)",
      "Hotel California",
      "Come On Over",
      "Rumours",
      "Saturday Night Fever"
    ]
  ],
  "numDeployments": 1,
  "solcInputHash": "c6781564f37f6c6044d2c8945802c552",
  "bytecode": "0x60806040523480156200001157600080fd5b5060405162000fb638038062000fb6833981016040819052620000349162000185565b6200003f8162000046565b5062000466565b60005b815181101562000112576001808383815181106200006b576200006b620002af565b6020026020010151604051620000829190620002c5565b908152602001604051809103902060006101000a81548160ff0219169083151502179055506002828281518110620000be57620000be620002af565b60209081029190910181015182546001810184556000938452919092200190620000e9908262000372565b50600360008154620000fb906200043e565b909155506200010a816200043e565b905062000049565b5050565b634e487b7160e01b600052604160045260246000fd5b604051601f8201601f191681016001600160401b038111828210171562000157576200015762000116565b604052919050565b60005b838110156200017c57818101518382015260200162000162565b50506000910152565b600060208083850312156200019957600080fd5b82516001600160401b0380821115620001b157600080fd5b8185019150601f8681840112620001c757600080fd5b825182811115620001dc57620001dc62000116565b8060051b620001ed8682016200012c565b918252848101860191868101908a8411156200020857600080fd5b87870192505b83831015620002a157825186811115620002285760008081fd5b8701603f81018c136200023b5760008081fd5b8881015160408882111562000254576200025462000116565b62000267828901601f19168c016200012c565b8281528e828486010111156200027d5760008081fd5b6200028e838d83018487016200015f565b855250505091870191908701906200020e565b9a9950505050505050505050565b634e487b7160e01b600052603260045260246000fd5b60008251620002d98184602087016200015f565b9190910192915050565b600181811c90821680620002f857607f821691505b6020821081036200031957634e487b7160e01b600052602260045260246000fd5b50919050565b601f8211156200036d57600081815260208120601f850160051c81016020861015620003485750805b601f850160051c820191505b81811015620003695782815560010162000354565b5050505b505050565b81516001600160401b038111156200038e576200038e62000116565b620003a6816200039f8454620002e3565b846200031f565b602080601f831160018114620003de5760008415620003c55750858301515b600019600386901b1c1916600185901b17855562000369565b600085815260208120601f198616915b828110156200040f57888601518255948401946001909101908401620003ee565b50858210156200042e5787850151600019600388901b60f8161c191681555b5050505050600190811b01905550565b6000600182016200045f57634e487b7160e01b600052601160045260246000fd5b5060010190565b610b4080620004766000396000f3fe608060405234801561001057600080fd5b50600436106100935760003560e01c8063837f887811610066578063837f887814610110578063b374ac591461011a578063c75c333c14610148578063c785314814610184578063d81aa8c41461019757600080fd5b80631cf0830b146100985780633dc0e102146100b657806377c9f518146100cd5780637c45f03c146100f0575b600080fd5b6100a06101aa565b6040516100ad91906107e4565b60405180910390f35b6100bf60035481565b6040519081526020016100ad565b6100e06100db3660046108e9565b61032c565b60405190151581526020016100ad565b6101036100fe366004610926565b610357565b6040516100ad919061093f565b610118610403565b005b6100e06101283660046108e9565b805160208183018101805160018252928201919093012091525460ff1681565b6100e0610156366004610975565b6000602081815292815260409020815180830184018051928152908401929093019190912091525460ff1681565b6100a06101923660046109c3565b6104d2565b6101186101a53660046108e9565b610703565b6060600060035467ffffffffffffffff8111156101c9576101c9610846565b6040519080825280602002602001820160405280156101fc57816020015b60608152602001906001900390816101e75790505b50905060005b60025481101561032657600160028281548110610221576102216109de565b906000526020600020016040516102389190610a28565b9081526040519081900360200190205460ff16156103145760028181548110610263576102636109de565b906000526020600020018054610278906109f4565b80601f01602080910402602001604051908101604052809291908181526020018280546102a4906109f4565b80156102f15780601f106102c6576101008083540402835291602001916102f1565b820191906000526020600020905b8154815290600101906020018083116102d457829003601f168201915b5050505050828281518110610308576103086109de565b60200260200101819052505b8061031e81610ac7565b915050610202565b50919050565b600060018260405161033e9190610aee565b9081526040519081900360200190205460ff1692915050565b6002818154811061036757600080fd5b906000526020600020016000915090508054610382906109f4565b80601f01602080910402602001604051908101604052809291908181526020018280546103ae906109f4565b80156103fb5780601f106103d0576101008083540402835291602001916103fb565b820191906000526020600020905b8154815290600101906020018083116103de57829003601f168201915b505050505081565b60005b6002548110156104cf573360009081526020819052604090206002805483908110610433576104336109de565b9060005260206000200160405161044a9190610a28565b9081526040519081900360200190205460ff16156104bd573360009081526020819052604081206002805484908110610485576104856109de565b9060005260206000200160405161049c9190610a28565b908152604051908190036020019020805491151560ff199092169190911790555b806104c781610ac7565b915050610406565b50565b60606000805b60025481101561055b576001600160a01b0384166000908152602081905260409020600280548390811061050e5761050e6109de565b906000526020600020016040516105259190610a28565b9081526040519081900360200190205460ff16156105495761054682610ac7565b91505b8061055381610ac7565b9150506104d8565b5060008167ffffffffffffffff81111561057757610577610846565b6040519080825280602002602001820160405280156105aa57816020015b60608152602001906001900390816105955790505b5090506000915060005b6002548110156106fb576001600160a01b038516600090815260208190526040902060028054839081106105ea576105ea6109de565b906000526020600020016040516106019190610a28565b9081526040519081900360200190205460ff16156106e9576002818154811061062c5761062c6109de565b906000526020600020018054610641906109f4565b80601f016020809104026020016040519081016040528092919081815260200182805461066d906109f4565b80156106ba5780601f1061068f576101008083540402835291602001916106ba565b820191906000526020600020905b81548152906001019060200180831161069d57829003601f168201915b50505050508284815181106106d1576106d16109de565b6020026020010181905250826106e690610ac7565b92505b806106f381610ac7565b9150506105b4565b509392505050565b6001816040516107139190610aee565b9081526040519081900360200190205460ff161561077057336000908152602081905260409081902090516001919061074d908490610aee565b908152604051908190036020019020805491151560ff1990921691909117905550565b80604051634f0ffc1b60e01b815260040161078b919061093f565b60405180910390fd5b60005b838110156107af578181015183820152602001610797565b50506000910152565b600081518084526107d0816020860160208601610794565b601f01601f19169290920160200192915050565b6000602080830181845280855180835260408601915060408160051b870101925083870160005b8281101561083957603f198886030184526108278583516107b8565b9450928501929085019060010161080b565b5092979650505050505050565b634e487b7160e01b600052604160045260246000fd5b600082601f83011261086d57600080fd5b813567ffffffffffffffff8082111561088857610888610846565b604051601f8301601f19908116603f011681019082821181831017156108b0576108b0610846565b816040528381528660208588010111156108c957600080fd5b836020870160208301376000602085830101528094505050505092915050565b6000602082840312156108fb57600080fd5b813567ffffffffffffffff81111561091257600080fd5b61091e8482850161085c565b949350505050565b60006020828403121561093857600080fd5b5035919050565b60208152600061095260208301846107b8565b9392505050565b80356001600160a01b038116811461097057600080fd5b919050565b6000806040838503121561098857600080fd5b61099183610959565b9150602083013567ffffffffffffffff8111156109ad57600080fd5b6109b98582860161085c565b9150509250929050565b6000602082840312156109d557600080fd5b61095282610959565b634e487b7160e01b600052603260045260246000fd5b600181811c90821680610a0857607f821691505b60208210810361032657634e487b7160e01b600052602260045260246000fd5b600080835481600182811c915080831680610a4457607f831692505b60208084108203610a6357634e487b7160e01b86526022600452602486fd5b818015610a775760018114610a8c57610ab9565b60ff1986168952841515850289019650610ab9565b60008a81526020902060005b86811015610ab15781548b820152908501908301610a98565b505084890196505b509498975050505050505050565b600060018201610ae757634e487b7160e01b600052601160045260246000fd5b5060010190565b60008251610b00818460208701610794565b919091019291505056fea26469706673582212208a9a40de1c498a3ede0595a28a662a3b0b49c81dbc5dc2415cf4794ad89b026164736f6c63430008110033",
  "devdoc": {
    "author": "tekh.eth",
    "kind": "dev",
    "methods": {},
    "version": 1
  },
  "userdoc": {
    "kind": "user",
    "methods": {},
    "notice": "base camp exercise https://docs.base.org/base-camp/docs/mappings/mappings-exercise",
    "version": 1
  },
  "storageLayout": {
    "storage": [
      {
        "astId": 8,
        "contract": "contracts/FavoriteRecords.sol:FavoriteRecords",
        "label": "userFavorites",
        "offset": 0,
        "slot": "0",
        "type": "t_mapping(t_address,t_mapping(t_string_memory_ptr,t_bool))"
      },
      {
        "astId": 12,
        "contract": "contracts/FavoriteRecords.sol:FavoriteRecords",
        "label": "approvedRecords",
        "offset": 0,
        "slot": "1",
        "type": "t_mapping(t_string_memory_ptr,t_bool)"
      },
      {
        "astId": 15,
        "contract": "contracts/FavoriteRecords.sol:FavoriteRecords",
        "label": "albumIndex",
        "offset": 0,
        "slot": "2",
        "type": "t_array(t_string_storage)dyn_storage"
      },
      {
        "astId": 17,
        "contract": "contracts/FavoriteRecords.sol:FavoriteRecords",
        "label": "approvedAlbumCount",
        "offset": 0,
        "slot": "3",
        "type": "t_uint256"
      }
    ],
    "types": {
      "t_address": {
        "encoding": "inplace",
        "label": "address",
        "numberOfBytes": "20"
      },
      "t_array(t_string_storage)dyn_storage": {
        "base": "t_string_storage",
        "encoding": "dynamic_array",
        "label": "string[]",
        "numberOfBytes": "32"
      },
      "t_bool": {
        "encoding": "inplace",
        "label": "bool",
        "numberOfBytes": "1"
      },
      "t_mapping(t_address,t_mapping(t_string_memory_ptr,t_bool))": {
        "encoding": "mapping",
        "key": "t_address",
        "label": "mapping(address => mapping(string => bool))",
        "numberOfBytes": "32",
        "value": "t_mapping(t_string_memory_ptr,t_bool)"
      },
      "t_mapping(t_string_memory_ptr,t_bool)": {
        "encoding": "mapping",
        "key": "t_string_memory_ptr",
        "label": "mapping(string => bool)",
        "numberOfBytes": "32",
        "value": "t_bool"
      },
      "t_string_memory_ptr": {
        "encoding": "bytes",
        "label": "string",
        "numberOfBytes": "32"
      },
      "t_string_storage": {
        "encoding": "bytes",
        "label": "string",
        "numberOfBytes": "32"
      },
      "t_uint256": {
        "encoding": "inplace",
        "label": "uint256",
        "numberOfBytes": "32"
      }
    }
  }
}